{
  "_format": "hh-sol-artifact-1",
  "contractName": "NFTMarketplace",
  "sourceName": "contracts/NFTMarketplace.sol",
  "abi": [
    {
      "inputs": [],
      "stateMutability": "nonpayable",
      "type": "constructor"
    },
    {
      "anonymous": false,
      "inputs": [
        {
          "indexed": true,
          "internalType": "address",
          "name": "owner",
          "type": "address"
        },
        {
          "indexed": true,
          "internalType": "address",
          "name": "approved",
          "type": "address"
        },
        {
          "indexed": true,
          "internalType": "uint256",
          "name": "tokenId",
          "type": "uint256"
        }
      ],
      "name": "Approval",
      "type": "event"
    },
    {
      "anonymous": false,
      "inputs": [
        {
          "indexed": true,
          "internalType": "address",
          "name": "owner",
          "type": "address"
        },
        {
          "indexed": true,
          "internalType": "address",
          "name": "operator",
          "type": "address"
        },
        {
          "indexed": false,
          "internalType": "bool",
          "name": "approved",
          "type": "bool"
        }
      ],
      "name": "ApprovalForAll",
      "type": "event"
    },
    {
      "anonymous": false,
      "inputs": [
        {
          "indexed": true,
          "internalType": "uint256",
          "name": "tokenId",
          "type": "uint256"
        },
        {
          "indexed": false,
          "internalType": "address",
          "name": "seller",
          "type": "address"
        },
        {
          "indexed": false,
          "internalType": "address",
          "name": "owner",
          "type": "address"
        },
        {
          "indexed": false,
          "internalType": "uint256",
          "name": "price",
          "type": "uint256"
        },
        {
          "indexed": false,
          "internalType": "bool",
          "name": "sold",
          "type": "bool"
        }
      ],
      "name": "MarketItemCreated",
      "type": "event"
    },
    {
      "anonymous": false,
      "inputs": [
        {
          "indexed": true,
          "internalType": "uint256",
          "name": "tokenId",
          "type": "uint256"
        },
        {
          "indexed": false,
          "internalType": "address",
          "name": "seller",
          "type": "address"
        },
        {
          "indexed": false,
          "internalType": "address",
          "name": "owner",
          "type": "address"
        },
        {
          "indexed": false,
          "internalType": "uint256",
          "name": "price",
          "type": "uint256"
        },
        {
          "indexed": false,
          "internalType": "bool",
          "name": "sold",
          "type": "bool"
        }
      ],
      "name": "PersonalItemCreated",
      "type": "event"
    },
    {
      "anonymous": false,
      "inputs": [
        {
          "indexed": true,
          "internalType": "address",
          "name": "from",
          "type": "address"
        },
        {
          "indexed": true,
          "internalType": "address",
          "name": "to",
          "type": "address"
        },
        {
          "indexed": true,
          "internalType": "uint256",
          "name": "tokenId",
          "type": "uint256"
        }
      ],
      "name": "Transfer",
      "type": "event"
    },
    {
      "anonymous": false,
      "inputs": [
        {
          "indexed": false,
          "internalType": "address",
          "name": "sender",
          "type": "address"
        },
        {
          "indexed": false,
          "internalType": "address",
          "name": "to",
          "type": "address"
        },
        {
          "indexed": false,
          "internalType": "uint256",
          "name": "amount",
          "type": "uint256"
        }
      ],
      "name": "TransferSent",
      "type": "event"
    },
    {
      "inputs": [
        {
          "internalType": "address",
          "name": "to",
          "type": "address"
        },
        {
          "internalType": "uint256",
          "name": "tokenId",
          "type": "uint256"
        }
      ],
      "name": "approve",
      "outputs": [],
      "stateMutability": "nonpayable",
      "type": "function"
    },
    {
      "inputs": [
        {
          "internalType": "address",
          "name": "_staker",
          "type": "address"
        }
      ],
      "name": "availableRewards",
      "outputs": [
        {
          "internalType": "uint256",
          "name": "",
          "type": "uint256"
        }
      ],
      "stateMutability": "view",
      "type": "function"
    },
    {
      "inputs": [
        {
          "internalType": "address",
          "name": "owner",
          "type": "address"
        }
      ],
      "name": "balanceOf",
      "outputs": [
        {
          "internalType": "uint256",
          "name": "",
          "type": "uint256"
        }
      ],
      "stateMutability": "view",
      "type": "function"
    },
    {
      "inputs": [],
      "name": "claimRewards",
      "outputs": [],
      "stateMutability": "nonpayable",
      "type": "function"
    },
    {
      "inputs": [
        {
          "internalType": "uint256",
          "name": "tokenId",
          "type": "uint256"
        }
      ],
      "name": "createMarketSale",
      "outputs": [],
      "stateMutability": "payable",
      "type": "function"
    },
    {
      "inputs": [
        {
          "internalType": "string",
          "name": "tokenURI",
          "type": "string"
        },
        {
          "internalType": "uint256",
          "name": "price",
          "type": "uint256"
        }
      ],
      "name": "createPersonalToken",
      "outputs": [
        {
          "internalType": "uint256",
          "name": "",
          "type": "uint256"
        }
      ],
      "stateMutability": "payable",
      "type": "function"
    },
    {
      "inputs": [
        {
          "internalType": "string",
          "name": "tokenURI",
          "type": "string"
        },
        {
          "internalType": "uint256",
          "name": "price",
          "type": "uint256"
        }
      ],
      "name": "createToken",
      "outputs": [
        {
          "internalType": "uint256",
          "name": "",
          "type": "uint256"
        }
      ],
      "stateMutability": "payable",
      "type": "function"
    },
    {
      "inputs": [],
      "name": "duration",
      "outputs": [
        {
          "internalType": "uint256",
          "name": "",
          "type": "uint256"
        }
      ],
      "stateMutability": "view",
      "type": "function"
    },
    {
      "inputs": [
        {
          "internalType": "address payable",
          "name": "_winner",
          "type": "address"
        }
      ],
      "name": "endOfGame",
      "outputs": [],
      "stateMutability": "nonpayable",
      "type": "function"
    },
    {
      "inputs": [],
      "name": "fetchItemsListed",
      "outputs": [
        {
          "components": [
            {
              "internalType": "uint256",
              "name": "tokenId",
              "type": "uint256"
            },
            {
              "internalType": "address payable",
              "name": "seller",
              "type": "address"
            },
            {
              "internalType": "address payable",
              "name": "owner",
              "type": "address"
            },
            {
              "internalType": "uint256",
              "name": "price",
              "type": "uint256"
            },
            {
              "internalType": "bool",
              "name": "sold",
              "type": "bool"
            }
          ],
          "internalType": "struct NFTMarketplace.MarketItem[]",
          "name": "",
          "type": "tuple[]"
        }
      ],
      "stateMutability": "view",
      "type": "function"
    },
    {
      "inputs": [],
      "name": "fetchMarketItems",
      "outputs": [
        {
          "components": [
            {
              "internalType": "uint256",
              "name": "tokenId",
              "type": "uint256"
            },
            {
              "internalType": "address payable",
              "name": "seller",
              "type": "address"
            },
            {
              "internalType": "address payable",
              "name": "owner",
              "type": "address"
            },
            {
              "internalType": "uint256",
              "name": "price",
              "type": "uint256"
            },
            {
              "internalType": "bool",
              "name": "sold",
              "type": "bool"
            }
          ],
          "internalType": "struct NFTMarketplace.MarketItem[]",
          "name": "",
          "type": "tuple[]"
        }
      ],
      "stateMutability": "view",
      "type": "function"
    },
    {
      "inputs": [],
      "name": "fetchMyNFTs",
      "outputs": [
        {
          "components": [
            {
              "internalType": "uint256",
              "name": "tokenId",
              "type": "uint256"
            },
            {
              "internalType": "address payable",
              "name": "seller",
              "type": "address"
            },
            {
              "internalType": "address payable",
              "name": "owner",
              "type": "address"
            },
            {
              "internalType": "uint256",
              "name": "price",
              "type": "uint256"
            },
            {
              "internalType": "bool",
              "name": "sold",
              "type": "bool"
            }
          ],
          "internalType": "struct NFTMarketplace.MarketItem[]",
          "name": "",
          "type": "tuple[]"
        }
      ],
      "stateMutability": "view",
      "type": "function"
    },
    {
      "inputs": [
        {
          "internalType": "uint256",
          "name": "tokenId",
          "type": "uint256"
        }
      ],
      "name": "getApproved",
      "outputs": [
        {
          "internalType": "address",
          "name": "",
          "type": "address"
        }
      ],
      "stateMutability": "view",
      "type": "function"
    },
    {
      "inputs": [],
      "name": "getCurrentTokenId",
      "outputs": [
        {
          "internalType": "uint256",
          "name": "",
          "type": "uint256"
        }
      ],
      "stateMutability": "view",
      "type": "function"
    },
    {
      "inputs": [],
      "name": "getListingPrice",
      "outputs": [
        {
          "internalType": "uint256",
          "name": "",
          "type": "uint256"
        }
      ],
      "stateMutability": "view",
      "type": "function"
    },
    {
      "inputs": [
        {
          "internalType": "uint256",
          "name": "tokenId",
          "type": "uint256"
        }
      ],
      "name": "getOwner",
      "outputs": [
        {
          "internalType": "address",
          "name": "",
          "type": "address"
        }
      ],
      "stateMutability": "view",
      "type": "function"
    },
    {
      "inputs": [],
      "name": "getPlayers",
      "outputs": [
        {
          "internalType": "address[]",
          "name": "",
          "type": "address[]"
        }
      ],
      "stateMutability": "view",
      "type": "function"
    },
    {
      "inputs": [
        {
          "internalType": "uint256",
          "name": "tokenId",
          "type": "uint256"
        }
      ],
      "name": "getPrice",
      "outputs": [
        {
          "internalType": "uint256",
          "name": "",
          "type": "uint256"
        }
      ],
      "stateMutability": "view",
      "type": "function"
    },
    {
      "inputs": [
        {
          "internalType": "address",
          "name": "_user",
          "type": "address"
        }
      ],
      "name": "getStakedTokens",
      "outputs": [
        {
          "components": [
            {
              "internalType": "address",
              "name": "staker",
              "type": "address"
            },
            {
              "internalType": "uint256",
              "name": "tokenId",
              "type": "uint256"
            }
          ],
          "internalType": "struct NFTMarketplace.StakedToken[]",
          "name": "",
          "type": "tuple[]"
        }
      ],
      "stateMutability": "view",
      "type": "function"
    },
    {
      "inputs": [],
      "name": "getZeroAdrress",
      "outputs": [
        {
          "internalType": "address",
          "name": "",
          "type": "address"
        }
      ],
      "stateMutability": "pure",
      "type": "function"
    },
    {
      "inputs": [
        {
          "internalType": "address",
          "name": "owner",
          "type": "address"
        },
        {
          "internalType": "address",
          "name": "operator",
          "type": "address"
        }
      ],
      "name": "isApprovedForAll",
      "outputs": [
        {
          "internalType": "bool",
          "name": "",
          "type": "bool"
        }
      ],
      "stateMutability": "view",
      "type": "function"
    },
    {
      "inputs": [],
      "name": "joinGame",
      "outputs": [],
      "stateMutability": "payable",
      "type": "function"
    },
    {
      "inputs": [],
      "name": "name",
      "outputs": [
        {
          "internalType": "string",
          "name": "",
          "type": "string"
        }
      ],
      "stateMutability": "view",
      "type": "function"
    },
    {
      "inputs": [
        {
          "internalType": "uint256",
          "name": "tokenId",
          "type": "uint256"
        }
      ],
      "name": "ownerOf",
      "outputs": [
        {
          "internalType": "address",
          "name": "",
          "type": "address"
        }
      ],
      "stateMutability": "view",
      "type": "function"
    },
    {
      "inputs": [
        {
          "internalType": "uint256",
          "name": "",
          "type": "uint256"
        }
      ],
      "name": "players",
      "outputs": [
        {
          "internalType": "address",
          "name": "",
          "type": "address"
        }
      ],
      "stateMutability": "view",
      "type": "function"
    },
    {
      "inputs": [
        {
          "internalType": "uint256",
          "name": "tokenId",
          "type": "uint256"
        },
        {
          "internalType": "uint256",
          "name": "price",
          "type": "uint256"
        }
      ],
      "name": "resellToken",
      "outputs": [],
      "stateMutability": "payable",
      "type": "function"
    },
    {
      "inputs": [],
      "name": "rewardsToken",
      "outputs": [
        {
          "internalType": "contract IERC20",
          "name": "",
          "type": "address"
        }
      ],
      "stateMutability": "view",
      "type": "function"
    },
    {
      "inputs": [
        {
          "internalType": "address",
          "name": "from",
          "type": "address"
        },
        {
          "internalType": "address",
          "name": "to",
          "type": "address"
        },
        {
          "internalType": "uint256",
          "name": "tokenId",
          "type": "uint256"
        }
      ],
      "name": "safeTransferFrom",
      "outputs": [],
      "stateMutability": "nonpayable",
      "type": "function"
    },
    {
      "inputs": [
        {
          "internalType": "address",
          "name": "from",
          "type": "address"
        },
        {
          "internalType": "address",
          "name": "to",
          "type": "address"
        },
        {
          "internalType": "uint256",
          "name": "tokenId",
          "type": "uint256"
        },
        {
          "internalType": "bytes",
          "name": "_data",
          "type": "bytes"
        }
      ],
      "name": "safeTransferFrom",
      "outputs": [],
      "stateMutability": "nonpayable",
      "type": "function"
    },
    {
      "inputs": [
        {
          "internalType": "address",
          "name": "operator",
          "type": "address"
        },
        {
          "internalType": "bool",
          "name": "approved",
          "type": "bool"
        }
      ],
      "name": "setApprovalForAll",
      "outputs": [],
      "stateMutability": "nonpayable",
      "type": "function"
    },
    {
      "inputs": [
        {
          "internalType": "uint256",
          "name": "_tokenId",
          "type": "uint256"
        }
      ],
      "name": "stake",
      "outputs": [],
      "stateMutability": "nonpayable",
      "type": "function"
    },
    {
      "inputs": [
        {
          "internalType": "uint256",
          "name": "",
          "type": "uint256"
        }
      ],
      "name": "stakerAddress",
      "outputs": [
        {
          "internalType": "address",
          "name": "",
          "type": "address"
        }
      ],
      "stateMutability": "view",
      "type": "function"
    },
    {
      "inputs": [
        {
          "internalType": "address",
          "name": "",
          "type": "address"
        }
      ],
      "name": "stakers",
      "outputs": [
        {
          "internalType": "uint256",
          "name": "amountStaked",
          "type": "uint256"
        },
        {
          "internalType": "uint256",
          "name": "timeOfLastUpdate",
          "type": "uint256"
        },
        {
          "internalType": "uint256",
          "name": "unclaimedRewards",
          "type": "uint256"
        }
      ],
      "stateMutability": "view",
      "type": "function"
    },
    {
      "inputs": [],
      "name": "startTime",
      "outputs": [
        {
          "internalType": "uint256",
          "name": "",
          "type": "uint256"
        }
      ],
      "stateMutability": "view",
      "type": "function"
    },
    {
      "inputs": [
        {
          "internalType": "bytes4",
          "name": "interfaceId",
          "type": "bytes4"
        }
      ],
      "name": "supportsInterface",
      "outputs": [
        {
          "internalType": "bool",
          "name": "",
          "type": "bool"
        }
      ],
      "stateMutability": "view",
      "type": "function"
    },
    {
      "inputs": [],
      "name": "symbol",
      "outputs": [
        {
          "internalType": "string",
          "name": "",
          "type": "string"
        }
      ],
      "stateMutability": "view",
      "type": "function"
    },
    {
      "inputs": [],
      "name": "tokenID",
      "outputs": [
        {
          "internalType": "uint256",
          "name": "",
          "type": "uint256"
        }
      ],
      "stateMutability": "view",
      "type": "function"
    },
    {
      "inputs": [
        {
          "internalType": "uint256",
          "name": "tokenId",
          "type": "uint256"
        }
      ],
      "name": "tokenURI",
      "outputs": [
        {
          "internalType": "string",
          "name": "",
          "type": "string"
        }
      ],
      "stateMutability": "view",
      "type": "function"
    },
    {
      "inputs": [],
      "name": "totalStakedToken",
      "outputs": [
        {
          "internalType": "uint256",
          "name": "",
          "type": "uint256"
        }
      ],
      "stateMutability": "view",
      "type": "function"
    },
    {
      "inputs": [
        {
          "internalType": "address",
          "name": "from",
          "type": "address"
        },
        {
          "internalType": "address",
          "name": "to",
          "type": "address"
        },
        {
          "internalType": "uint256",
          "name": "tokenId",
          "type": "uint256"
        }
      ],
      "name": "transferFrom",
      "outputs": [],
      "stateMutability": "nonpayable",
      "type": "function"
    },
    {
      "inputs": [
        {
          "internalType": "uint256",
          "name": "_listingPrice",
          "type": "uint256"
        }
      ],
      "name": "updateListingPrice",
      "outputs": [],
      "stateMutability": "payable",
      "type": "function"
    },
    {
      "inputs": [
        {
          "internalType": "uint256",
          "name": "_tokenId",
          "type": "uint256"
        }
      ],
      "name": "withdraw",
      "outputs": [],
      "stateMutability": "nonpayable",
      "type": "function"
    }
  ],
  "bytecode": "0x60a06040526658d15e17628000600a556000600c5562093a80600f557f19c653da7c37c66208fbfbe8908a5051b57b4c700000000000000000000000006080526103e86011553480156200005257600080fd5b50604080518082018252601081526f4d657461766572736520546f6b656e7360801b6020808301918252835180850190945260048452631351551560e21b908401528151919291620000a791600091620000e1565b508051620000bd906001906020840190620000e1565b5050600160075550600b80546001600160a01b0319163317905542600e55620001c4565b828054620000ef9062000187565b90600052602060002090601f0160209004810192826200011357600085556200015e565b82601f106200012e57805160ff19168380011785556200015e565b828001600101855582156200015e579182015b828111156200015e57825182559160200191906001019062000141565b506200016c92915062000170565b5090565b5b808211156200016c576000815560010162000171565b600181811c908216806200019c57607f821691505b60208210811415620001be57634e487b7160e01b600052602260045260246000fd5b50919050565b60805160601c613b0e620001ea6000396000818161073e01526113060152613b0e6000f3fe6080604052600436106102d15760003560e01c80639168ae7211610179578063be9af536116100d6578063d4f77b1c1161008a578063e985e9c511610064578063e985e9c5146107ab578063f71d96cb146107f4578063f854a27f1461081457600080fd5b8063d4f77b1c14610760578063e219fc7514610768578063e75722301461077b57600080fd5b8063c87b56dd116100bb578063c87b56dd146106f6578063cb6d8ee614610716578063d1af0c7d1461072c57600080fd5b8063be9af536146106aa578063c41a360a146106bd57600080fd5b8063a5c42ef11161012d578063ad141f9611610112578063ad141f9614610664578063ae677aa314610677578063b88d4fde1461068a57600080fd5b8063a5c42ef114610481578063a694fc3a1461064457600080fd5b806395d89b411161015e57806395d89b41146105fb5780639f66dd1d14610610578063a22cb4651461062457600080fd5b80639168ae721461056e57806394067045146105c557600080fd5b8063372500ab1161023257806363c28db1116101e657806378e97925116101c057806378e97925146105165780638b5b9ccc1461052c5780638bc9b67f1461054e57600080fd5b806363c28db1146104b657806370a08231146104e357806372b3b6201461050357600080fd5b806345f8fa801161021757806345f8fa801461046c57806356189236146104815780636352211e1461049657600080fd5b8063372500ab1461043757806342842e0e1461044c57600080fd5b80630fb5a6b411610289578063202e37401161026e578063202e3740146103e257806323b872dd146103f75780632e1a7d4d1461041757600080fd5b80630fb5a6b4146103a957806312e85585146103cd57600080fd5b8063081812fc116102ba578063081812fc1461032d578063095ea7b3146103655780630f08efe01461038757600080fd5b806301ffc9a7146102d657806306fdde031461030b575b600080fd5b3480156102e257600080fd5b506102f66102f13660046136b1565b610834565b60405190151581526020015b60405180910390f35b34801561031757600080fd5b506103206108d1565b604051610302919061393b565b34801561033957600080fd5b5061034d61034836600461373f565b610963565b6040516001600160a01b039091168152602001610302565b34801561037157600080fd5b5061038561038036600461366a565b6109fd565b005b34801561039357600080fd5b5061039c610b2f565b6040516103029190613874565b3480156103b557600080fd5b506103bf600f5481565b604051908152602001610302565b3480156103d957600080fd5b50600a546103bf565b3480156103ee57600080fd5b5061039c610ce3565b34801561040357600080fd5b50610385610412366004613580565b610ed5565b34801561042357600080fd5b5061038561043236600461373f565b610f5c565b34801561044357600080fd5b5061038561126d565b34801561045857600080fd5b50610385610467366004613580565b61132f565b34801561047857600080fd5b5061039c61134a565b34801561048d57600080fd5b506103bf61153c565b3480156104a257600080fd5b5061034d6104b136600461373f565b61154c565b3480156104c257600080fd5b506104d66104d136600461352c565b6115d7565b60405161030291906138f0565b3480156104ef57600080fd5b506103bf6104fe36600461352c565b611809565b6103bf6105113660046136e9565b6118a3565b34801561052257600080fd5b506103bf600e5481565b34801561053857600080fd5b506105416118e5565b6040516103029190613827565b34801561055a57600080fd5b5061038561056936600461352c565b611946565b34801561057a57600080fd5b506105aa61058936600461352c565b60126020526000908152604090208054600282015460039092015490919083565b60408051938452602084019290925290820152606001610302565b3480156105d157600080fd5b5061034d6105e036600461373f565b6013602052600090815260409020546001600160a01b031681565b34801561060757600080fd5b50610320611b3d565b34801561061c57600080fd5b50600061034d565b34801561063057600080fd5b5061038561063f36600461363d565b611b4c565b34801561065057600080fd5b5061038561065f36600461373f565b611b5b565b6103bf6106723660046136e9565b611d3c565b61038561068536600461373f565b611d77565b34801561069657600080fd5b506103856106a53660046135c0565b611dfc565b6103856106b836600461373f565b611e8a565b3480156106c957600080fd5b5061034d6106d836600461373f565b6000908152601060205260409020600201546001600160a01b031690565b34801561070257600080fd5b5061032061071136600461373f565b611ff2565b34801561072257600080fd5b506103bf600c5481565b34801561073857600080fd5b5061034d7f000000000000000000000000000000000000000000000000000000000000000081565b610385612185565b61038561077636600461376f565b612256565b34801561078757600080fd5b506103bf61079636600461373f565b60009081526010602052604090206003015490565b3480156107b757600080fd5b506102f66107c6366004613548565b6001600160a01b03918216600090815260056020908152604080832093909416825291909152205460ff1690565b34801561080057600080fd5b5061034d61080f36600461373f565b61239d565b34801561082057600080fd5b506103bf61082f36600461352c565b6123c7565b60006001600160e01b031982167f80ac58cd00000000000000000000000000000000000000000000000000000000148061089757506001600160e01b031982167f5b5e139f00000000000000000000000000000000000000000000000000000000145b806108cb57507f01ffc9a7000000000000000000000000000000000000000000000000000000006001600160e01b03198316145b92915050565b6060600080546108e0906139f3565b80601f016020809104026020016040519081016040528092919081815260200182805461090c906139f3565b80156109595780601f1061092e57610100808354040283529160200191610959565b820191906000526020600020905b81548152906001019060200180831161093c57829003601f168201915b5050505050905090565b6000818152600260205260408120546001600160a01b03166109e15760405162461bcd60e51b815260206004820152602c60248201527f4552433732313a20617070726f76656420717565727920666f72206e6f6e657860448201526b34b9ba32b73a103a37b5b2b760a11b60648201526084015b60405180910390fd5b506000908152600460205260409020546001600160a01b031690565b6000610a088261154c565b9050806001600160a01b0316836001600160a01b03161415610a925760405162461bcd60e51b815260206004820152602160248201527f4552433732313a20617070726f76616c20746f2063757272656e74206f776e6560448201527f720000000000000000000000000000000000000000000000000000000000000060648201526084016109d8565b336001600160a01b0382161480610aae5750610aae81336107c6565b610b205760405162461bcd60e51b815260206004820152603860248201527f4552433732313a20617070726f76652063616c6c6572206973206e6f74206f7760448201527f6e6572206e6f7220617070726f76656420666f7220616c6c000000000000000060648201526084016109d8565b610b2a83836123f8565b505050565b60606000610b3c60085490565b90506000610b4960095490565b600854610b569190613999565b90506000808267ffffffffffffffff811115610b8257634e487b7160e01b600052604160045260246000fd5b604051908082528060200260200182016040528015610bdb57816020015b6040805160a081018252600080825260208083018290529282018190526060820181905260808201528252600019909201910181610ba05790505b50905060005b84811015610cda573060106000610bf984600161394e565b81526020810191909152604001600020600201546001600160a01b03161415610cc8576000610c2982600161394e565b600081815260106020908152604091829020825160a0810184528154815260018201546001600160a01b039081169382019390935260028201549092169282019290925260038201546060820152600482015460ff161515608082015285519293509091859087908110610cad57634e487b7160e01b600052603260045260246000fd5b6020908102919091010152610cc360018661394e565b945050505b80610cd281613a2e565b915050610be1565b50949350505050565b60606000610cf060085490565b905060008060005b83811015610d53573360106000610d1084600161394e565b81526020810191909152604001600020600201546001600160a01b03161415610d4157610d3e60018461394e565b92505b80610d4b81613a2e565b915050610cf8565b5060008267ffffffffffffffff811115610d7d57634e487b7160e01b600052604160045260246000fd5b604051908082528060200260200182016040528015610dd657816020015b6040805160a081018252600080825260208083018290529282018190526060820181905260808201528252600019909201910181610d9b5790505b50905060005b84811015610cda573360106000610df484600161394e565b81526020810191909152604001600020600201546001600160a01b03161415610ec3576000610e2482600161394e565b600081815260106020908152604091829020825160a0810184528154815260018201546001600160a01b039081169382019390935260028201549092169282019290925260038201546060820152600482015460ff161515608082015285519293509091859087908110610ea857634e487b7160e01b600052603260045260246000fd5b6020908102919091010152610ebe60018661394e565b945050505b80610ecd81613a2e565b915050610ddc565b610edf3382612466565b610f515760405162461bcd60e51b815260206004820152603160248201527f4552433732313a207472616e736665722063616c6c6572206973206e6f74206f60448201527f776e6572206e6f7220617070726f76656400000000000000000000000000000060648201526084016109d8565b610b2a838383612559565b60026007541415610faf5760405162461bcd60e51b815260206004820152601f60248201527f5265656e7472616e637947756172643a207265656e7472616e742063616c6c0060448201526064016109d8565b6002600755336000908152601260205260409020546110105760405162461bcd60e51b815260206004820152601960248201527f596f752068617665206e6f20746f6b656e73207374616b65640000000000000060448201526064016109d8565b6000818152601360205260409020546001600160a01b031633146110765760405162461bcd60e51b815260206004820152601960248201527f596f7520646f6e2774206f776e207468697320746f6b656e210000000000000060448201526064016109d8565b600061108133612726565b336000908152601260205260408120600301805492935083929091906110a890849061394e565b9091555060009050805b336000908152601260205260409020600101548110156111895733600090815260126020526040902060010180548591908390811061110157634e487b7160e01b600052603260045260246000fd5b90600052602060002090600202016001015414801561116a575033600090815260126020526040812060010180548390811061114d57634e487b7160e01b600052603260045260246000fd5b60009182526020909120600290910201546001600160a01b031614155b1561117757809150611189565b8061118181613a2e565b9150506110b2565b503360009081526012602052604081206001018054839081106111bc57634e487b7160e01b600052603260045260246000fd5b6000918252602080832060029290920290910180546001600160a01b0319166001600160a01b039490941693909317909255338152601290915260408120805491611206836139dc565b9091555050600083815260136020908152604080832080546001600160a01b0319908116909155601090925290912060020180543392168217905561124d90309085612559565b505033600090815260126020526040902042600290910155506001600755565b33600081815260126020526040812060030154909161128b90612726565b611295919061394e565b9050600081116112e75760405162461bcd60e51b815260206004820152601c60248201527f596f752068617665206e6f207265776172647320746f20636c61696d0000000060448201526064016109d8565b3360008181526012602052604081204260028201556003015561132c907f0000000000000000000000000000000000000000000000000000000000000000908361277a565b50565b610b2a83838360405180602001604052806000815250611dfc565b6060600061135760085490565b905060008060005b838110156113ba57336010600061137784600161394e565b81526020810191909152604001600020600101546001600160a01b031614156113a8576113a560018461394e565b92505b806113b281613a2e565b91505061135f565b5060008267ffffffffffffffff8111156113e457634e487b7160e01b600052604160045260246000fd5b60405190808252806020026020018201604052801561143d57816020015b6040805160a0810182526000808252602080830182905292820181905260608201819052608082015282526000199092019101816114025790505b50905060005b84811015610cda57336010600061145b84600161394e565b81526020810191909152604001600020600101546001600160a01b0316141561152a57600061148b82600161394e565b600081815260106020908152604091829020825160a0810184528154815260018201546001600160a01b039081169382019390935260028201549092169282019290925260038201546060820152600482015460ff16151560808201528551929350909185908790811061150f57634e487b7160e01b600052603260045260246000fd5b602090810291909101015261152560018661394e565b945050505b8061153481613a2e565b915050611443565b600061154760085490565b905090565b6000818152600260205260408120546001600160a01b0316806108cb5760405162461bcd60e51b815260206004820152602960248201527f4552433732313a206f776e657220717565727920666f72206e6f6e657869737460448201527f656e7420746f6b656e000000000000000000000000000000000000000000000060648201526084016109d8565b6001600160a01b038116600090815260126020526040902054606090156117c5576001600160a01b03821660009081526012602052604081205467ffffffffffffffff81111561163757634e487b7160e01b600052604160045260246000fd5b60405190808252806020026020018201604052801561167c57816020015b60408051808201909152600080825260208201528152602001906001900390816116555790505b5090506000805b6001600160a01b0385166000908152601260205260409020600101548110156117bc576001600160a01b03851660009081526012602052604081206001018054839081106116e157634e487b7160e01b600052603260045260246000fd5b60009182526020909120600290910201546001600160a01b0316146117aa576001600160a01b038516600090815260126020526040902060010180548290811061173b57634e487b7160e01b600052603260045260246000fd5b60009182526020918290206040805180820190915260029092020180546001600160a01b031682526001015491810191909152835184908490811061179057634e487b7160e01b600052603260045260246000fd5b602002602001018190525081806117a690613a2e565b9250505b806117b481613a2e565b915050611683565b50909392505050565b6040805160008082526020820190925290611802565b60408051808201909152600080825260208201528152602001906001900390816117db5790505b5092915050565b60006001600160a01b0382166118875760405162461bcd60e51b815260206004820152602a60248201527f4552433732313a2062616c616e636520717565727920666f7220746865207a6560448201527f726f20616464726573730000000000000000000000000000000000000000000060648201526084016109d8565b506001600160a01b031660009081526003602052604090205490565b60006118b3600880546001019055565b60006118be60085490565b90506118ca33826129a4565b6118d48185612ae6565b6118de8184612b8f565b9392505050565b6060600d80548060200260200160405190810160405280929190818152602001828054801561095957602002820191906000526020600020905b81546001600160a01b0316815260019091019060200180831161191f575050505050905090565b600b546001600160a01b031633146119c65760405162461bcd60e51b815260206004820152602160248201527f4f6e6c79206f776e65722063616e2063616c6c20746869732066756e6374696f60448201527f6e0000000000000000000000000000000000000000000000000000000000000060648201526084016109d8565b600f54600e546119d6919061394e565b421015611a255760405162461bcd60e51b815260206004820152601f60248201527f54696d6520706572696f6420686173206e6f7420656c6170736564207965740060448201526064016109d8565b6001600160a01b038116611a7b5760405162461bcd60e51b815260206004820152601960248201527f496e76616c696420726563697069656e7420616464726573730000000000000060448201526064016109d8565b600c54471015611af25760405162461bcd60e51b8152602060048201526024808201527f496e73756666696369656e742062616c616e636520696e2074686520636f6e7460448201527f726163740000000000000000000000000000000000000000000000000000000060648201526084016109d8565b600c546040516001600160a01b0383169180156108fc02916000818181858888f19350505050158015611b29573d6000803e3d6000fd5b506000600c81905561132c90600d906133ff565b6060600180546108e0906139f3565b611b57338383612d22565b5050565b60026007541415611bae5760405162461bcd60e51b815260206004820152601f60248201527f5265656e7472616e637947756172643a207265656e7472616e742063616c6c0060448201526064016109d8565b60026007553360009081526012602052604090205415611c01576000611bd333612726565b33600090815260126020526040812060030180549293508392909190611bfa90849061394e565b9091555050505b6000818152601060205260409020600201546001600160a01b03163314611c6a5760405162461bcd60e51b815260206004820152601960248201527f596f7520646f6e2774206f776e207468697320746f6b656e210000000000000060448201526064016109d8565b611c75333083612559565b604080518082018252338082526020808301858152600083815260128352948520600180820180548083018255908852938720865160029095020180546001600160a01b0319166001600160a01b039095169490941784559151929091019190915590835280549192611ce783613a2e565b90915550505060009081526013602090815260408083208054336001600160a01b0319918216811790925560108452828520600290810180549092169091559084526012909252909120429101556001600755565b6000611d4c600880546001019055565b6000611d5760085490565b9050611d6333826129a4565b611d6d8185612ae6565b6118de8184612df1565b600b546001600160a01b03163314611df75760405162461bcd60e51b815260206004820152603060248201527f4f6e6c79206d61726b6574706c616365206f776e65722063616e20757064617460448201527f65206c697374696e672070726963652e0000000000000000000000000000000060648201526084016109d8565b600a55565b611e063383612466565b611e785760405162461bcd60e51b815260206004820152603160248201527f4552433732313a207472616e736665722063616c6c6572206973206e6f74206f60448201527f776e6572206e6f7220617070726f76656400000000000000000000000000000060648201526084016109d8565b611e8484848484612f79565b50505050565b600081815260106020526040902060030154348114611f13576040805162461bcd60e51b81526020600482015260248101919091527f506c65617365207375626d6974207468652061736b696e67207072696365206960448201527f6e206f7264657220746f20636f6d706c6574652074686520707572636861736560648201526084016109d8565b60008281526010602052604090206002810180546001600160a01b0319908116331790915560048201805460ff1916600190811790915590910180549091169055611f62600980546001019055565b611f6d303384612559565b600b54600a546040516001600160a01b039092169181156108fc0291906000818181858888f19350505050158015611fa9573d6000803e3d6000fd5b506000828152601060205260408082206001015490516001600160a01b03909116913480156108fc02929091818181858888f19350505050158015610b2a573d6000803e3d6000fd5b6000818152600260205260409020546060906001600160a01b031661207f5760405162461bcd60e51b815260206004820152603160248201527f45524337323155524953746f726167653a2055524920717565727920666f722060448201527f6e6f6e6578697374656e7420746f6b656e00000000000000000000000000000060648201526084016109d8565b60008281526006602052604081208054612098906139f3565b80601f01602080910402602001604051908101604052809291908181526020018280546120c4906139f3565b80156121115780601f106120e657610100808354040283529160200191612111565b820191906000526020600020905b8154815290600101906020018083116120f457829003601f168201915b50505050509050600061212f60408051602081019091526000815290565b9050805160001415612142575092915050565b81511561217457808260405160200161215c9291906137bc565b60405160208183030381529060405292505050919050565b61217d84613002565b949350505050565b600a5434146121fc5760405162461bcd60e51b815260206004820152602160248201527f6e6f7420656e6f7567682066756e642073656e7420746f206a6f696e2067616d60448201527f650000000000000000000000000000000000000000000000000000000000000060648201526084016109d8565b600d805460018101825560009182527fd7b6990105719101dabeb77144f2a3385c8033acd3af97e9423a695e81ad1eb50180546001600160a01b03191633179055600c805434929061224f90849061394e565b9091555050565b6000828152601060205260409020600201546001600160a01b031633146122e55760405162461bcd60e51b815260206004820152602a60248201527f4f6e6c79206974656d206f776e65722063616e20706572666f726d207468697360448201527f206f7065726174696f6e0000000000000000000000000000000000000000000060648201526084016109d8565b600a5434146123425760405162461bcd60e51b8152602060048201526024808201527f5072696365206d75737420626520657175616c20746f206c697374696e6720706044820152637269636560e01b60648201526084016109d8565b600082815260106020526040902060048101805460ff19169055600381018290556001810180546001600160a01b03199081163317909155600290910180549091163017905561239260096130f7565b611b57333084612559565b600d81815481106123ad57600080fd5b6000918252602090912001546001600160a01b0316905081565b6001600160a01b03811660009081526012602052604081206003015481906123ee84612726565b6118de919061394e565b600081815260046020526040902080546001600160a01b0319166001600160a01b038416908117909155819061242d8261154c565b6001600160a01b03167f8c5be1e5ebec7d5bd14f71427d1e84f3dd0314c0f7b2291e5b200ac8c7c3b92560405160405180910390a45050565b6000818152600260205260408120546001600160a01b03166124df5760405162461bcd60e51b815260206004820152602c60248201527f4552433732313a206f70657261746f7220717565727920666f72206e6f6e657860448201526b34b9ba32b73a103a37b5b2b760a11b60648201526084016109d8565b60006124ea8361154c565b9050806001600160a01b0316846001600160a01b031614806125255750836001600160a01b031661251a84610963565b6001600160a01b0316145b8061217d57506001600160a01b0380821660009081526005602090815260408083209388168352929052205460ff1661217d565b826001600160a01b031661256c8261154c565b6001600160a01b0316146125e85760405162461bcd60e51b815260206004820152602560248201527f4552433732313a207472616e736665722066726f6d20696e636f72726563742060448201527f6f776e657200000000000000000000000000000000000000000000000000000060648201526084016109d8565b6001600160a01b0382166126635760405162461bcd60e51b8152602060048201526024808201527f4552433732313a207472616e7366657220746f20746865207a65726f2061646460448201527f726573730000000000000000000000000000000000000000000000000000000060648201526084016109d8565b61266e6000826123f8565b6001600160a01b0383166000908152600360205260408120805460019290612697908490613999565b90915550506001600160a01b03821660009081526003602052604081208054600192906126c590849061394e565b909155505060008181526002602052604080822080546001600160a01b0319166001600160a01b0386811691821790925591518493918716917fddf252ad1be2c89b69c2b068fc378daa952ba7f163c4a11628f55a4df523b3ef91a4505050565b6011546001600160a01b038216600090815260126020526040812080546002909101549192610e109290919061275c9042613999565b612766919061397a565b612770919061397a565b6108cb9190613966565b600b546001600160a01b031633146127d45760405162461bcd60e51b815260206004820152601d60248201527f4f6e6c79206f776e65722063616e2077697468647261772066756e647300000060448201526064016109d8565b6040517f70a082310000000000000000000000000000000000000000000000000000000081523060048201526000906001600160a01b038516906370a082319060240160206040518083038186803b15801561282f57600080fd5b505afa158015612843573d6000803e3d6000fd5b505050506040513d601f19601f820116820180604052508101906128679190613757565b9050808211156128b95760405162461bcd60e51b815260206004820152600e60248201527f62616c616e6365206973206c6f7700000000000000000000000000000000000060448201526064016109d8565b6040517fa9059cbb0000000000000000000000000000000000000000000000000000000081526001600160a01b0384811660048301526024820184905285169063a9059cbb90604401602060405180830381600087803b15801561291c57600080fd5b505af1158015612930573d6000803e3d6000fd5b505050506040513d601f19601f820116820180604052508101906129549190613695565b50604080513381526001600160a01b03851660208201529081018390527ffda3a3e0e1479b43cb1c701f7576187f4c4ad80768d627387e00184302f7d88e9060600160405180910390a150505050565b6001600160a01b0382166129fa5760405162461bcd60e51b815260206004820181905260248201527f4552433732313a206d696e7420746f20746865207a65726f206164647265737360448201526064016109d8565b6000818152600260205260409020546001600160a01b031615612a5f5760405162461bcd60e51b815260206004820152601c60248201527f4552433732313a20746f6b656e20616c7265616479206d696e7465640000000060448201526064016109d8565b6001600160a01b0382166000908152600360205260408120805460019290612a8890849061394e565b909155505060008181526002602052604080822080546001600160a01b0319166001600160a01b03861690811790915590518392907fddf252ad1be2c89b69c2b068fc378daa952ba7f163c4a11628f55a4df523b3ef908290a45050565b6000828152600260205260409020546001600160a01b0316612b705760405162461bcd60e51b815260206004820152602e60248201527f45524337323155524953746f726167653a2055524920736574206f66206e6f6e60448201527f6578697374656e7420746f6b656e00000000000000000000000000000000000060648201526084016109d8565b60008281526006602090815260409091208251610b2a9284019061341d565b60008111612bdf5760405162461bcd60e51b815260206004820152601c60248201527f5072696365206d757374206265206174206c656173742031207765690000000060448201526064016109d8565b600a543414612c3c5760405162461bcd60e51b8152602060048201526024808201527f5072696365206d75737420626520657175616c20746f206c697374696e6720706044820152637269636560e01b60648201526084016109d8565b6040805160a08101825283815233602080830182815230848601818152606086018881526000608088018181528b82526010909652979097209551865591516001860180546001600160a01b03199081166001600160a01b0393841617909155925160028701805490941691161790915593516003840155516004909201805460ff191692151592909217909155612cd49184612559565b604080513381523060208201529081018290526000606082015282907fb640004f1d14576d0c209e240cad0410e0d8c0c33a09375861fbadae2588a98d906080015b60405180910390a25050565b816001600160a01b0316836001600160a01b03161415612d845760405162461bcd60e51b815260206004820152601960248201527f4552433732313a20617070726f766520746f2063616c6c65720000000000000060448201526064016109d8565b6001600160a01b03838116600081815260056020908152604080832094871680845294825291829020805460ff191686151590811790915591519182527f17307eab39ab6107e8899845ad3d59bd9653f200f220920489ca2b5937696c31910160405180910390a3505050565b60008111612e415760405162461bcd60e51b815260206004820152601c60248201527f5072696365206d757374206265206174206c656173742031207765690000000060448201526064016109d8565b6040805160a08101825283815233602080830182815230848601818152606086018881526000608088018181528b82526010909652979097209551865591516001860180546001600160a01b03199081166001600160a01b0393841617909155925160028701805490941691161790915593516003840155516004909201805460ff191692151592909217909155612ed99184612559565b60008281526010602052604090206002810180546001600160a01b0319908116331790915560048201805460ff1916600190811790915590910180549091169055612f28600980546001019055565b612f33303384612559565b604080513081523360208201529081018290526001606082015282907fd6cae11418ba2a1ec659992393f3db3926b5d6391aba2e8e6032a490247a076790608001612d16565b612f84848484612559565b612f908484848461314e565b611e845760405162461bcd60e51b815260206004820152603260248201527f4552433732313a207472616e7366657220746f206e6f6e20455243373231526560448201527f63656976657220696d706c656d656e746572000000000000000000000000000060648201526084016109d8565b6000818152600260205260409020546060906001600160a01b031661308f5760405162461bcd60e51b815260206004820152602f60248201527f4552433732314d657461646174613a2055524920717565727920666f72206e6f60448201527f6e6578697374656e7420746f6b656e000000000000000000000000000000000060648201526084016109d8565b60006130a660408051602081019091526000815290565b905060008151116130c657604051806020016040528060008152506118de565b806130d0846132b1565b6040516020016130e19291906137bc565b6040516020818303038152906040529392505050565b8054806131465760405162461bcd60e51b815260206004820152601b60248201527f436f756e7465723a2064656372656d656e74206f766572666c6f77000000000060448201526064016109d8565b600019019055565b60006001600160a01b0384163b156132a657604051630a85bd0160e11b81526001600160a01b0385169063150b7a02906131929033908990889088906004016137eb565b602060405180830381600087803b1580156131ac57600080fd5b505af19250505080156131dc575060408051601f3d908101601f191682019092526131d9918101906136cd565b60015b61328c573d80801561320a576040519150601f19603f3d011682016040523d82523d6000602084013e61320f565b606091505b5080516132845760405162461bcd60e51b815260206004820152603260248201527f4552433732313a207472616e7366657220746f206e6f6e20455243373231526560448201527f63656976657220696d706c656d656e746572000000000000000000000000000060648201526084016109d8565b805181602001fd5b6001600160e01b031916630a85bd0160e11b14905061217d565b506001949350505050565b6060816132f157505060408051808201909152600181527f3000000000000000000000000000000000000000000000000000000000000000602082015290565b8160005b811561331b578061330581613a2e565b91506133149050600a83613966565b91506132f5565b60008167ffffffffffffffff81111561334457634e487b7160e01b600052604160045260246000fd5b6040519080825280601f01601f19166020018201604052801561336e576020820181803683370190505b5090505b841561217d57613383600183613999565b9150613390600a86613a49565b61339b90603061394e565b60f81b8183815181106133be57634e487b7160e01b600052603260045260246000fd5b60200101907effffffffffffffffffffffffffffffffffffffffffffffffffffffffffffff1916908160001a9053506133f8600a86613966565b9450613372565b508054600082559060005260206000209081019061132c91906134a1565b828054613429906139f3565b90600052602060002090601f01602090048101928261344b5760008555613491565b82601f1061346457805160ff1916838001178555613491565b82800160010185558215613491579182015b82811115613491578251825591602001919060010190613476565b5061349d9291506134a1565b5090565b5b8082111561349d57600081556001016134a2565b600067ffffffffffffffff808411156134d1576134d1613a89565b604051601f8501601f19908116603f011681019082821181831017156134f9576134f9613a89565b8160405280935085815286868601111561351257600080fd5b858560208301376000602087830101525050509392505050565b60006020828403121561353d578081fd5b81356118de81613a9f565b6000806040838503121561355a578081fd5b823561356581613a9f565b9150602083013561357581613a9f565b809150509250929050565b600080600060608486031215613594578081fd5b833561359f81613a9f565b925060208401356135af81613a9f565b929592945050506040919091013590565b600080600080608085870312156135d5578081fd5b84356135e081613a9f565b935060208501356135f081613a9f565b925060408501359150606085013567ffffffffffffffff811115613612578182fd5b8501601f81018713613622578182fd5b613631878235602084016134b6565b91505092959194509250565b6000806040838503121561364f578182fd5b823561365a81613a9f565b9150602083013561357581613ab4565b6000806040838503121561367c578182fd5b823561368781613a9f565b946020939093013593505050565b6000602082840312156136a6578081fd5b81516118de81613ab4565b6000602082840312156136c2578081fd5b81356118de81613ac2565b6000602082840312156136de578081fd5b81516118de81613ac2565b600080604083850312156136fb578182fd5b823567ffffffffffffffff811115613711578283fd5b8301601f81018513613721578283fd5b613730858235602084016134b6565b95602094909401359450505050565b600060208284031215613750578081fd5b5035919050565b600060208284031215613768578081fd5b5051919050565b60008060408385031215613781578182fd5b50508035926020909101359150565b600081518084526137a88160208601602086016139b0565b601f01601f19169290920160200192915050565b600083516137ce8184602088016139b0565b8351908301906137e28183602088016139b0565b01949350505050565b60006001600160a01b0380871683528086166020840152508360408301526080606083015261381d6080830184613790565b9695505050505050565b6020808252825182820181905260009190848201906040850190845b818110156138685783516001600160a01b031683529284019291840191600101613843565b50909695505050505050565b602080825282518282018190526000919060409081850190868401855b828110156138e357815180518552868101516001600160a01b03908116888701528682015116868601526060808201519086015260809081015115159085015260a09093019290850190600101613891565b5091979650505050505050565b602080825282518282018190526000919060409081850190868401855b828110156138e357815180516001600160a01b0316855286015186850152928401929085019060010161390d565b6020815260006118de6020830184613790565b6000821982111561396157613961613a5d565b500190565b60008261397557613975613a73565b500490565b600081600019048311821515161561399457613994613a5d565b500290565b6000828210156139ab576139ab613a5d565b500390565b60005b838110156139cb5781810151838201526020016139b3565b83811115611e845750506000910152565b6000816139eb576139eb613a5d565b506000190190565b600181811c90821680613a0757607f821691505b60208210811415613a2857634e487b7160e01b600052602260045260246000fd5b50919050565b6000600019821415613a4257613a42613a5d565b5060010190565b600082613a5857613a58613a73565b500690565b634e487b7160e01b600052601160045260246000fd5b634e487b7160e01b600052601260045260246000fd5b634e487b7160e01b600052604160045260246000fd5b6001600160a01b038116811461132c57600080fd5b801515811461132c57600080fd5b6001600160e01b03198116811461132c57600080fdfea26469706673582212207eeae920e064f7c9a2a4c7486291fc554dacdd312efa6385deb52e7202c24f7164736f6c63430008040033",
  "linkReferences": {},
  "deployedLinkReferences": {}
}